:100000000C9403010C942F010C942F010C942F01DC
:100010000C942F010C942F010C942F010C942F01A0
:100020000C942F010C942F010C942F010C942F0190
:100030000C942F010C942F010C942F010C942F0180
:100040000C942F010C942F010C942F010C942F0170
:100050000C942F010C942F010C942F010C948A0501
:100060000C942F010C947E070C945E080C942F01C5
:100070000C942F010C942F010C942F010C942F0140
:100080000C942F010C942F010C942F010C942F0130
:100090000C94B6070C949D080C942F010C942F011E
:1000A0000C942F010C942F010C942F010C942F0110
:1000B0000C942F010C942F010C942F010C942F0100
:1000C0000C942F010C942F010C942F010C94EE072B
:1000D0000C94DC080C942F010C9426080C941B093A
:1000E0000C942F0100002100240027002A002D007D
:1000F0003000330001010000040107010A01000083
:100100002200250028002B002E00310034000201BF
:100110000000050108010B0100002000230026005B
:1001200029002C002F00320000010000030106010D
:10013000090105050505070508080808020202026D
:100140000A0A080804040404010101010101010173
:100150000303030303030303040707070C0C0C0C3E
:100160000C0C0C0C02020202060606060606060627
:100170000B0B0B0B0B0B0B0B0102102020080810B4
:100180002040102040800201020108040201010207
:1001900004081020408080402010080402018004E0
:1001A000020180402010080402010804020101023B
:1001B0000408102040800102040810204080000044
:1001C000090A02080B0C0D070603040100000000D9
:1001D000000000000000000000000000000000001F
:1001E0000000000000000000000011100F000000DF
:1001F00000000000000000000000000000000000FF
:1002000000000000EB0A11241FBECFEFD1E2DEBFD9
:10021000CDBF00E00CBF12E0A0E0B2E0EEE3F9E1F8
:1002200000E00BBF02C007900D92A231B107D9F7D1
:1002300014E0A2E1B2E001C01D92A73BB107E1F7D3
:1002400012E0C6E0D2E004C02297FE010E94990CA1
:10025000C430D107C9F70E944D050C94530C0C947F
:1002600000002F923F924F925F926F927F928F92F7
:100270009F92AF92BF92CF92DF92EF92FF920F9335
:100280001F93CF93DF9359016A0117012801A80139
:1002900097010E94750C7B018C01C601B501A2017A
:1002A00091010E94750CAC01CB01DA015C016D017A
:1002B000662477244301C0E0D0E0D801C7010C2EAA
:1002C00004C0B695A795979587950A94D2F780FFB5
:1002D0000FC06A0C7B1C8C1C9D1CC401B301A201C5
:1002E00091010E94750CAC01CB01DA013C014D017A
:1002F0002196C032D10581F0AA0CBB1CCC1CDD1CA0
:10030000C601B501A20191010E94750CAC01CB019F
:10031000DA015C016D01D1CFC401B301A2019101E9
:100320000E94750CDF91CF911F910F91FF90EF907C
:10033000DF90CF90BF90AF909F908F907F906F9005
:100340005F904F903F902F9008952F923F924F9241
:100350005F926F927F928F929F92AF92BF92CF9255
:10036000DF92EF92FF920F931F93DF93CF9300D012
:1003700000D0CDB7DEB75B016C0129833A834B8394
:100380005C833701480161E070E080E090E0A80103
:1003900097010E94750C562E472E382E292EC60125
:1003A000B501A80197010E94750CB62EC72ED82E54
:1003B000A92E1E821D8289819A81AB81BC810D800C
:1003C00004C0B695A795979587950A94D2F780FFB4
:1003D00010C0652D742D832D922D2B2D3C2D4D2D70
:1003E0005A2D840173010E943101562E472E382E5A
:1003F000292E6B2D7C2D8D2D9A2D2B2D3C2D4D2DA9
:100400005A2D840173010E943101B62EC72ED82EB9
:10041000A92E8D819E8101969E838D83809759F6AA
:10042000652D742D832D922D26960FB6F894DEBF80
:100430000FBECDBFCF91DF911F910F91FF90EF9035
:10044000DF90CF90BF90AF909F908F907F906F90F4
:100450005F904F903F902F90089588E994E00E941C
:10046000E0098BE394E00E94E00908954F925F92C7
:100470006F927F928F929F92AF92BF92CF92DF92B4
:10048000EF92FF920F931F9358E9452E54E0552E9B
:10049000C2010E94770A3C01C2010E94770A7C01D6
:1004A000C2010E94770A5C01C2010E94770A0027FC
:1004B000F7FC0095102F102F0F2DFE2CEE24CC24CE
:1004C000B7FCC094DC2C6501BB24AA24EA28FB28D5
:1004D0000C291D29882477FC8094982CE628F7287D
:1004E00008291929AA2797FDA095BA2FB82FAA275E
:1004F00099278827E82AF92A0A2B1B2BB701C8015C
:100500001F910F91FF90EF90DF90CF90BF90AF9031
:100510009F908F907F906F905F904F9008952F9253
:100520003F924F925F926F927F928F929F92AF9283
:10053000BF92CF92DF920F931F93DF93CF93CDB7EC
:10054000DEB729970FB6F894DEBF0FBECDBFDC0132
:100550009B01AC0119012A01CB013C014D018BE348
:1005600094E00E94460A181619060CF050C08BE35E
:1005700094E00E94770A082F8D3021F48BE394E0F9
:100580000E94330C8BE394E0602F0E94B20AC201F8
:10059000B101807090702FE83CEB40E050E00E9489
:1005A000560C6D837E838F839887B20188279927A5
:1005B0000E94560C5B016C011FE0D694C794B7945F
:1005C000A7941A95D1F72D813E814F815885A20EAF
:1005D000B31EC41ED51E7F7780709070CB01772725
:1005E0006627A60EB71EC81ED91ED7FE08C081E01A
:1005F00090E0A0E0B0E8A80EB91ECA1EDB1E0A25D6
:1006000088E994E0602F0E94B20A1501260188E96A
:1006100094E00E94460A181619060CF0A0CF88E94B
:1006200094E00E94770A8987C401B30180709070BA
:100630002FE83CEB40E050E00E94560C69837A833F
:100640008B839C83B401882799270E94560C5B01F9
:100650006C01FFE0D694C794B794A794FA95D1F7AC
:1006600029813A814B815C81A20EB31EC41ED51E26
:100670007F7780709070CB0177276627A60EB71E14
:10068000C81ED91ED7FE08C081E090E0A0E0B0E807
:10069000A80EB91ECA1EDB1E19851A251D3021F4AD
:1006A0008BE394E00E94330C8BE394E0612F0E9473
:1006B000B20A3501460153CFCF92DF92EF92FF92FB
:1006C0000F931F937B018C0148E9C42E44E0D42E84
:1006D000C6016E2D0E94B20A5527412F302F2F2DB3
:1006E000C601622F0E94B20A980144275527C6010D
:1006F000622F0E94B20AE12EFF2400271127C601B3
:100700006E2D0E94B20A1F910F91FF90EF90DF9023
:10071000CF9008958F929F92AF92BF92CF92DF9227
:10072000EF92FF921F93CF93DF93182F4A015B0143
:100730000E94D2056B017C01C80CD91CEA1CFB1C71
:10074000C12FD0E088E994E00E94460A8C179D07EB
:1007500084F4B7FC07C00E94D2056C157D058E0598
:100760009F0538F461E070E080E090E00E94E005D1
:10077000E9CF88E994E00E94460A20E08C179D07A3
:100780000CF021E0822FDF91CF911F91FF90EF902D
:10079000DF90CF90BF90AF909F908F900895AF92D1
:1007A000BF92CF92DF92EF92FF920F931F93CF935E
:1007B000DF937B018C0103C0C3E0D0E06FC0C0E0D9
:1007C000D0E081E048EE53E060E070E00E948A03F0
:1007D000882309F46BC003C0C5E0D0E05FC088E99E
:1007E00094E00E94770A8334910509F05FC084E0A9
:1007F00048EE53E060E070E00E948A038823F9F23B
:100800000E9436025B016C0188E994E061E40E9479
:10081000B20AC801B7010E945C03C2E0D0E03EC04A
:10082000C330D10509F042C084E048EE53E060E0F7
:1008300070E00E948A03882311F20E9436025B0155
:100840006C01C4E0D0E02AC081E048EE53E060E0F3
:1008500070E00E948A03882369F188E994E00E948D
:10086000770A8134910531F5B7CF88E994E00E9489
:10087000770A8334910509F0A2CF9ECF259709F01E
:100880009ECFB501C601DF91CF911F910F91FF90CF
:10089000EF90DF90CF90BF90AF900895C130D10519
:1008A00009F4A5CFC230D10579F2BACFC430D10551
:1008B00029F7CACF81E048EE53E060E070E00E9483
:1008C0008A03882309F47BCFD0CFAF92BF92CF9217
:1008D000DF92EF92FF920F931F937B018C0188E9C7
:1008E00094E063E40E94B20AC801B7010E945C036D
:1008F00081E090E081309105A1F581E048EE53E080
:1009000060E070E00E948A03882349F388E994E05C
:100910000E94770A8134910511F784E048EE53E094
:1009200060E070E00E948A038823C9F20E943602C8
:10093000D62EC72EB82EA92E88E994E061E40E9435
:10094000B20A82E090E0D6CF6D2D7C2D8B2D9A2DB2
:100950001F910F91FF90EF90DF90CF90BF90AF90DD
:100960000895029709F0BBCFEFCFEF92FF920F935C
:100970001F937B018C018DE00E944E07892B29F487
:10098000C801B7010E9465040AC08DE00E944E07AD
:10099000019729F4C801B7010E94CF0300C01F913D
:1009A0000F91FF90EF900895EF92FF920F931F9396
:1009B000CF93DF9381E060E00E949B06EE24FF244A
:1009C0008701C0E0D0E081E00E945605AA2797FD8C
:1009D000A095BA2F81709070A070B0700C2E04C0DA
:1009E000880F991FAA1FBB1F0A94D2F7E80EF91EA1
:1009F0000A1F1B1F62E370E080E090E00E94E005A8
:100A00002196C032D105F9F6B701C801DF91CF9127
:100A10001F910F91FF90EF900895AF92BF92CF92E8
:100A2000DF92EF92FF920F931F930E94D4045B0119
:100A30006C0167EA71E480E090E0A6019501EFEFB8
:100A4000EE2EEFEFFE2EEFEF0E2FEFE71E2F0E94A0
:100A5000A5010E94B504A60195010E94A5010E946E
:100A60008F021F910F91FF90EF90DF90CF90BF907A
:100A7000AF9008950E9439068BE394E040E855E278
:100A800060E070E00E945A0988E994E040E855E28D
:100A900060E070E00E945A0908950E943A050E94A1
:100AA0000D050E942D0280E090E00895382F8633D6
:100AB00008F0365320917B00832F86958695869586
:100AC00090E08170907043E0880F991F4A95E1F79C
:100AD000277F282B20937B0037708091000282951E
:100AE000880F880F807C832B80937C0080917A0014
:100AF000806480937A0080917A0086FDFCCF2091FB
:100B0000780040917900942F80E030E0282B392B39
:100B1000C90108951F920F920FB60F9211242F93BF
:100B20003F938F939F93AF93BF93809116029091C1
:100B30001702A0911802B091190230911A02019681
:100B4000A11DB11D232F2D5F2D3720F02D570196AC
:100B5000A11DB11D20931A028093160290931702D3
:100B6000A0931802B093190280911202909113027F
:100B7000A0911402B09115020196A11DB11D8093A0
:100B8000120290931302A0931402B0931502BF9126
:100B9000AF919F918F913F912F910F900FBE0F902A
:100BA0001F9018958FB7F894209116023091170274
:100BB00040911802509119028FBFB901CA010895DE
:100BC0009B01AC017FB7F8948091120290911302BF
:100BD000A0911402B091150266B5A89B05C06F3FA5
:100BE00019F00196A11DB11D7FBFBA2FA92F982F13
:100BF0008827860F911DA11DB11D62E0880F991FE6
:100C0000AA1FBB1F6A95D1F7BC012DC0FFB7F8948E
:100C10008091120290911302A0911402B0911502DA
:100C2000E6B5A89B05C0EF3F19F00196A11DB11DC7
:100C3000FFBFBA2FA92F982F88278E0F911DA11DB6
:100C4000B11DE2E0880F991FAA1FBB1FEA95D1F7DB
:100C5000861B970B885E9340C8F22150304040407D
:100C6000504068517C4F211531054105510571F601
:100C70000895789484B5826084BD84B5816084BD14
:100C800085B5826085BD85B5816085BDEEE6F0E005
:100C9000808181608083E1E8F0E010828081826061
:100CA0008083808181608083E0E8F0E080818160E2
:100CB0008083E1EBF0E0808184608083E0EBF0E012
:100CC000808181608083E1E9F0E0808182608083BF
:100CD000808181608083E0E9F0E0808181608083B1
:100CE000E1EAF0E08081826080838081816080839E
:100CF000E0EAF0E0808181608083E1E2F1E08081E0
:100D000082608083808181608083E0E2F1E0808185
:100D100081608083EAE7F0E0808184608083808165
:100D2000826080838081816080838081806880830D
:100D30001092C1000895CF93DF93482F50E0CA016D
:100D400088589E4FFC0134914E5C5E4FFA018491AD
:100D5000882369F190E0880F991FFC01EC51FF4F47
:100D6000A591B491FC01E250FF4FC591D491662347
:100D700051F42FB7F8948C91932F909589238C93ED
:100D8000888189230BC0623061F42FB7F8948C916D
:100D9000932F909589238C938881832B88832FBFF1
:100DA00006C09FB7F8948C91832B8C939FBFDF91E3
:100DB000CF910895893009F449C08A30A0F4843075
:100DC00051F1853040F4823079F1833000F5813083
:100DD00009F063C026C0873079F1883098F58630F5
:100DE00009F05BC025C08D3009F442C08E3028F474
:100DF0008B30B1F18C30C0F52DC0803109F442C088
:100E0000813109F445C08F3009F047C037C0809167
:100E100080008F7703C0809180008F7D8093800059
:100E2000089584B58F7702C084B58F7D84BD089501
:100E30008091B0008F7703C08091B0008F7D809348
:100E4000B0000895809190008F7707C08091900046
:100E50008F7D03C080919000877F809390000895DC
:100E60008091A0008F7707C08091A0008F7D03C084
:100E70008091A000877F8093A00008958091200139
:100E80008F7703C0809120018F7D8093200108958A
:100E900080912001877F8093200108950F931F93F5
:100EA000482F50E0CA0182549E4FFC012491CA0190
:100EB00088589E4FFC0104914E5C5E4FFA011491DC
:100EC000112319F420E030E015C0222319F0822FFD
:100ED0000E94DA06812F90E0880F991F885E9E4F4E
:100EE000FC01A591B4918C9120E030E0802311F0B9
:100EF00021E030E0C9011F910F9108951F920F92D8
:100F00000FB60F920BB60F9211242F933F934F936E
:100F10008F939F93EF93FF934091C60020915B02C4
:100F200030915C022F5F3F4F2F73307080915D02D4
:100F300090915E022817390759F0E0915B02F09119
:100F40005C02E55EFD4F408330935C0220935B02C0
:100F5000FF91EF919F918F914F913F912F910F9022
:100F60000BBE0F900FBE0F901F9018951F920F92FF
:100F70000FB60F920BB60F9211242F933F934F93FE
:100F80008F939F93EF93FF934091CE002091E302C4
:100F90003091E4022F5F3F4F2F7330708091E50254
:100FA0009091E6022817390759F0E091E302F09199
:100FB000E402ED55FD4F40833093E4022093E302B9
:100FC000FF91EF919F918F914F913F912F910F90B2
:100FD0000BBE0F900FBE0F901F9018951F920F928F
:100FE0000FB60F920BB60F9211242F933F934F938E
:100FF0008F939F93EF93FF934091D60020916B03C3
:1010000030916C032F5F3F4F2F73307080916D03D1
:1010100090916E032817390759F0E0916B03F09116
:101020006C03E55DFC4F408330936C0320936B03AE
:10103000FF91EF919F918F914F913F912F910F9041
:101040000BBE0F900FBE0F901F9018951F920F921E
:101050000FB60F920BB60F9211242F933F934F931D
:101060008F939F93EF93FF93409136012091F30369
:101070003091F4032F5F3F4F2F7330708091F50351
:101080009091F6032817390759F0E091F303F09196
:10109000F403ED54FC4F40833093F4032093F303A7
:1010A000FF91EF919F918F914F913F912F910F90D1
:1010B0000BBE0F900FBE0F901F9018951F920F92AE
:1010C0000FB60F920BB60F9211242F933F938F936D
:1010D0009F93EF93FF9320919F023091A002809104
:1010E000A1029091A2022817390731F48091C10022
:1010F0008F7D8093C10014C0E091A102F091A20203
:10110000E15AFD4F20818091A1029091A2020196A7
:101110008F7390709093A2028093A1022093C600D7
:10112000FF91EF919F918F913F912F910F900BBE67
:101130000F900FBE0F901F9018951F920F920FB631
:101140000F920BB60F9211242F933F938F939F937F
:10115000EF93FF9320912703309128038091290377
:1011600090912A032817390731F48091C9008F7DA7
:101170008093C90014C0E0912903F0912A03E9513A
:10118000FD4F20818091290390912A0301968F734E
:10119000907090932A03809329032093CE00FF91AF
:1011A000EF919F918F913F912F910F900BBE0F90D8
:1011B0000FBE0F901F9018951F920F920FB60F92AF
:1011C0000BB60F9211242F933F938F939F93EF931E
:1011D000FF932091AF033091B0038091B1039091C0
:1011E000B2032817390731F48091D1008F7D8093A5
:1011F000D10014C0E091B103F091B203E159FC4F6A
:1012000020818091B1039091B20301968F73907009
:101210009093B2038093B1032093D600FF91EF9196
:101220009F918F913F912F910F900BBE0F900FBE0A
:101230000F901F9018951F920F920FB60F920BB63A
:101240000F9211242F933F938F939F93EF93FF93CC
:1012500020913704309138048091390490913A04F8
:101260002817390731F4809131018F7D8093310146
:1012700014C0E0913904F0913A04E950FC4F208108
:101280008091390490913A0401968F7390709093F5
:101290003A048093390420933601FF91EF919F9196
:1012A0008F913F912F910F900BBE0F900FBE0F901B
:1012B0001F901895AF92BF92DF92EF92FF920F931B
:1012C0001F93CF93DF93EC017A018B01DD24403033
:1012D00081EE580780E0680780E0780711F0DD2490
:1012E000D39491E0A92EB12CEC89FD89DD2069F021
:1012F000C5010E8C02C0880F991F0A94E2F7808303
:1013000060E079E08DE390E005C0108260E874E869
:101310008EE190E0A80197010E94750C21503040A9
:1013200040405040569547953795279580E12030AD
:10133000380720F0DD2011F0DD24D6CFE889F989C7
:101340003083EA89FB892083EE89FF89408121E08F
:1013500030E0C9010A8C02C0880F991F0A94E2F795
:10136000482B4083EE89FF894081C9010B8C02C064
:10137000880F991F0A94E2F7482B4083EE89FF8972
:101380004081C9010C8C02C0880F991F0A94E2F7B2
:10139000482B4083EE89FF8980810D8C02C0220F8B
:1013A000331F0A94E2F7209528232083DF91CF9101
:1013B0001F910F91FF90EF90DF90BF90AF90089535
:1013C000CF93DF93DC011E968D919C911F97EC01CA
:1013D000C05CDF4FFC01EE5BFF4F288139818081CB
:1013E000918128173907C9F75696ED91FC915797C7
:1013F000408121E030E0C9015A960C905A9702C012
:10140000880F991F0A94E2F780958423808356966B
:10141000ED91FC9157974081C9015B960C905B97C9
:1014200002C0880F991F0A94E2F780958423808375
:101430005696ED91FC9157974081C9015C960C90AE
:101440005C9702C0880F991F0A94E2F78095842365
:1014500080835696ED91FC91579780815D960C9014
:101460005D9702C0220F331F0A94E2F720952823CC
:1014700020831C96ED91FC911D97EE5BFF4F8081C0
:10148000918192938293DF91CF910895DC011C9614
:10149000ED91FC911D97E05CFF4F2191319180818E
:1014A0009181281B390B2F733070C9010895DC011D
:1014B0001C96ED91FC911D97E05CFF4F20813181DE
:1014C000E054F040DF01AE5BBF4F8D919C911197CE
:1014D0002817390719F42FEF3FEF07C08D919C9122
:1014E000E80FF91F8081282F30E0C9010895DC0141
:1014F0001C96ED91FC911D97E05CFF4F208131819E
:10150000E054F040DF01AE5BBF4F8D919C9111978D
:101510002817390719F42FEF3FEF10C08D919C91D8
:101520001197E80FF91F20818D919C9111970196D9
:101530008F73907011969C938E9330E0C90108953B
:10154000FC0186859785DC01A05CBF4FFC01EE5B4A
:10155000FF4F2D913C911197808191812817390778
:10156000C1F70895CF93DF93EC01EE85FF85E05C32
:10157000FF4F20813181E054F0402F5F3F4F2F73A8
:101580003070DF01AE5BBF4F8D919C911197281792
:101590003907D1F3E05CFF4F80819181E054F04046
:1015A000E80FF91F6083EE85FF85E05CFF4F318314
:1015B0002083EE89FF89208181E090E00D8C02C0BC
:1015C000880F991F0A94E2F7282B208381E090E08E
:1015D000DF91CF9108951F9310923E0410923D0425
:1015E00028EE33E040E050E020933F043093400485
:1015F000409341045093420465E072E070933C04D0
:1016000060933B048BE192E09093480480934704FD
:101610008FE592E090934A048093490485EC90E032
:1016200090934C0480934B0484EC90E090934E0490
:1016300080934D0480EC90E09093500480934F048D
:1016400081EC90E0909352048093510486EC90E0FA
:10165000909354048093530414E010935504B3E022
:10166000B0935604A7E0A0935704F5E0F093580414
:10167000E1E0E093590410925D0410925C04209321
:101680005E0430935F044093600450936104709350
:101690005B0460935A0483EA92E09093670480931A
:1016A000660487EE92E090936904809368048DEC61
:1016B00090E090936B0480936A048CEC90E090939C
:1016C0006D0480936C0488EC90E090936F04809399
:1016D0006E0489EC90E090937104809370048EEC1A
:1016E00090E0909373048093720410937404B09309
:1016F0007504A0937604F0937704E0937804109235
:101700007C0410927B0420937D0430937E044093EC
:101710007F045093800470937A04609379048BE281
:1017200093E090938604809385048FE693E09093F2
:1017300088048093870485ED90E090938A048093D9
:10174000890484ED90E090938C0480938B0480ED69
:1017500090E090938E0480938D0481ED90E09093BF
:10176000900480938F0486ED90E090939204809390
:10177000910410939304B0939404A0939504F09370
:101780009604E093970410929B0410929A0420937D
:101790009C0430939D0440939E0450939F04709347
:1017A00099046093980483EB93E09093A50480934D
:1017B000A40487EF93E09093A7048093A60485E3A5
:1017C00091E09093A9048093A80484E391E090931E
:1017D000AB048093AA0480E391E09093AD048093DE
:1017E000AC0481E391E09093AF048093AE0486E370
:1017F00091E09093B1048093B0041093B204B0933D
:10180000B304A093B404F093B504E093B6041F911D
:101810000895CF92DF92EF92FF920F931F93CF9391
:10182000DF937C016B018A01C0E0D0E00FC0D601DC
:101830006D916D01D701ED91FC910190F081E02D4A
:10184000C7011995C80FD91F015010400115110586
:1018500071F7CE01DF91CF911F910F91FF90EF9023
:10186000DF90CF900895EF92FF920F931F938C011A
:10187000DC01ED91FC910190F081E02D6DE0199576
:101880007C01D801ED91FC910190F081E02DC8011F
:101890006AE019959C012E0D3F1DC9011F910F9102
:1018A000FF90EF900895F8940C949D0C629FD001E6
:1018B000739FF001829FE00DF11D649FE00DF11D0B
:1018C000929FF00D839FF00D749FF00D659FF00DBA
:1018D0009927729FB00DE11DF91F639FB00DE11DA7
:1018E000F91FBD01CF0111240895A1E21A2EAA1BF0
:1018F000BB1BFD010DC0AA1FBB1FEE1FFF1FA217C0
:10190000B307E407F50720F0A21BB30BE40BF50BBC
:10191000661F771F881F991F1A9469F76095709545
:10192000809590959B01AC01BD01CF010895EE0F0C
:0E193000FF1F0590F491E02D1994F894FFCF5D
:10193E000100000000B20A090C460A770A570AA0F5
:02194E000A008D
:00000001FF
